{
	"data": {
		"bytecode": {
			"linkReferences": {},
			"object": "608060405234801561001057600080fd5b50610214806100206000396000f3fe608060405234801561001057600080fd5b506004361061002b5760003560e01c8063a7ffeda814610030575b600080fd5b61004a600480360381019061004591906100e2565b610060565b604051610057919061011e565b60405180910390f35b600060018214806100715750600082145b1561007f57600190506100a2565b61009460018361008f9190610168565b610060565b8261009f919061019c565b90505b919050565b600080fd5b6000819050919050565b6100bf816100ac565b81146100ca57600080fd5b50565b6000813590506100dc816100b6565b92915050565b6000602082840312156100f8576100f76100a7565b5b6000610106848285016100cd565b91505092915050565b610118816100ac565b82525050565b6000602082019050610133600083018461010f565b92915050565b7f4e487b7100000000000000000000000000000000000000000000000000000000600052601160045260246000fd5b6000610173826100ac565b915061017e836100ac565b925082820390508181111561019657610195610139565b5b92915050565b60006101a7826100ac565b91506101b2836100ac565b92508282026101c0816100ac565b915082820484148315176101d7576101d6610139565b5b509291505056fea2646970667358221220b7370339ec1a4b4040b45358227a0e0d47980e9588d70f7aea4786552dd6e25364736f6c63430008110033",
			"opcodes": "PUSH1 0x80 PUSH1 0x40 MSTORE CALLVALUE DUP1 ISZERO PUSH2 0x10 JUMPI PUSH1 0x0 DUP1 REVERT JUMPDEST POP PUSH2 0x214 DUP1 PUSH2 0x20 PUSH1 0x0 CODECOPY PUSH1 0x0 RETURN INVALID PUSH1 0x80 PUSH1 0x40 MSTORE CALLVALUE DUP1 ISZERO PUSH2 0x10 JUMPI PUSH1 0x0 DUP1 REVERT JUMPDEST POP PUSH1 0x4 CALLDATASIZE LT PUSH2 0x2B JUMPI PUSH1 0x0 CALLDATALOAD PUSH1 0xE0 SHR DUP1 PUSH4 0xA7FFEDA8 EQ PUSH2 0x30 JUMPI JUMPDEST PUSH1 0x0 DUP1 REVERT JUMPDEST PUSH2 0x4A PUSH1 0x4 DUP1 CALLDATASIZE SUB DUP2 ADD SWAP1 PUSH2 0x45 SWAP2 SWAP1 PUSH2 0xE2 JUMP JUMPDEST PUSH2 0x60 JUMP JUMPDEST PUSH1 0x40 MLOAD PUSH2 0x57 SWAP2 SWAP1 PUSH2 0x11E JUMP JUMPDEST PUSH1 0x40 MLOAD DUP1 SWAP2 SUB SWAP1 RETURN JUMPDEST PUSH1 0x0 PUSH1 0x1 DUP3 EQ DUP1 PUSH2 0x71 JUMPI POP PUSH1 0x0 DUP3 EQ JUMPDEST ISZERO PUSH2 0x7F JUMPI PUSH1 0x1 SWAP1 POP PUSH2 0xA2 JUMP JUMPDEST PUSH2 0x94 PUSH1 0x1 DUP4 PUSH2 0x8F SWAP2 SWAP1 PUSH2 0x168 JUMP JUMPDEST PUSH2 0x60 JUMP JUMPDEST DUP3 PUSH2 0x9F SWAP2 SWAP1 PUSH2 0x19C JUMP JUMPDEST SWAP1 POP JUMPDEST SWAP2 SWAP1 POP JUMP JUMPDEST PUSH1 0x0 DUP1 REVERT JUMPDEST PUSH1 0x0 DUP2 SWAP1 POP SWAP2 SWAP1 POP JUMP JUMPDEST PUSH2 0xBF DUP2 PUSH2 0xAC JUMP JUMPDEST DUP2 EQ PUSH2 0xCA JUMPI PUSH1 0x0 DUP1 REVERT JUMPDEST POP JUMP JUMPDEST PUSH1 0x0 DUP2 CALLDATALOAD SWAP1 POP PUSH2 0xDC DUP2 PUSH2 0xB6 JUMP JUMPDEST SWAP3 SWAP2 POP POP JUMP JUMPDEST PUSH1 0x0 PUSH1 0x20 DUP3 DUP5 SUB SLT ISZERO PUSH2 0xF8 JUMPI PUSH2 0xF7 PUSH2 0xA7 JUMP JUMPDEST JUMPDEST PUSH1 0x0 PUSH2 0x106 DUP5 DUP3 DUP6 ADD PUSH2 0xCD JUMP JUMPDEST SWAP2 POP POP SWAP3 SWAP2 POP POP JUMP JUMPDEST PUSH2 0x118 DUP2 PUSH2 0xAC JUMP JUMPDEST DUP3 MSTORE POP POP JUMP JUMPDEST PUSH1 0x0 PUSH1 0x20 DUP3 ADD SWAP1 POP PUSH2 0x133 PUSH1 0x0 DUP4 ADD DUP5 PUSH2 0x10F JUMP JUMPDEST SWAP3 SWAP2 POP POP JUMP JUMPDEST PUSH32 0x4E487B7100000000000000000000000000000000000000000000000000000000 PUSH1 0x0 MSTORE PUSH1 0x11 PUSH1 0x4 MSTORE PUSH1 0x24 PUSH1 0x0 REVERT JUMPDEST PUSH1 0x0 PUSH2 0x173 DUP3 PUSH2 0xAC JUMP JUMPDEST SWAP2 POP PUSH2 0x17E DUP4 PUSH2 0xAC JUMP JUMPDEST SWAP3 POP DUP3 DUP3 SUB SWAP1 POP DUP2 DUP2 GT ISZERO PUSH2 0x196 JUMPI PUSH2 0x195 PUSH2 0x139 JUMP JUMPDEST JUMPDEST SWAP3 SWAP2 POP POP JUMP JUMPDEST PUSH1 0x0 PUSH2 0x1A7 DUP3 PUSH2 0xAC JUMP JUMPDEST SWAP2 POP PUSH2 0x1B2 DUP4 PUSH2 0xAC JUMP JUMPDEST SWAP3 POP DUP3 DUP3 MUL PUSH2 0x1C0 DUP2 PUSH2 0xAC JUMP JUMPDEST SWAP2 POP DUP3 DUP3 DIV DUP5 EQ DUP4 ISZERO OR PUSH2 0x1D7 JUMPI PUSH2 0x1D6 PUSH2 0x139 JUMP JUMPDEST JUMPDEST POP SWAP3 SWAP2 POP POP JUMP INVALID LOG2 PUSH5 0x6970667358 0x22 SLT KECCAK256 0xB7 CALLDATACOPY SUB CODECOPY 0xEC BYTE 0x4B BLOCKHASH BLOCKHASH 0xB4 MSTORE8 PC 0x22 PUSH27 0xE0D47980E9588D70F7AEA4786552DD6E25364736F6C6343000811 STOP CALLER "
		},
		"gasEstimates": {
			"creation": {
				"codeDepositCost": "106400",
				"executionCost": "153",
				"totalCost": "106553"
			},
			"external": {
				"isGiaiThua(uint256)": "infinite"
			}
		},
		"methodIdentifiers": {
			"isGiaiThua(uint256)": "a7ffeda8"
		}
	},
	"abi": [
		{
			"inputs": [
				{
					"internalType": "uint256",
					"name": "n",
					"type": "uint256"
				}
			],
			"name": "isGiaiThua",
			"outputs": [
				{
					"internalType": "uint256",
					"name": "",
					"type": "uint256"
				}
			],
			"stateMutability": "pure",
			"type": "function"
		}
	]
}